:020000040800F2
:100000000050002021020008270200082B020008EF
:100010009D020008A1020008E9020008000000009B
:100020000000000000000000000000003103000894
:10003000350300080000000039030008850A0008A5
:100040004D0300084D0300084D0300084D03000850
:100050004D0300084D0300084D0300084D03000840
:100060004D0300084D0300084D0300084D03000830
:100070004D0300084D0300084D0300084D03000820
:100080004D0300084D0300084D0300084D03000810
:100090004D0300084D0300084D0300084D03000800
:1000A0004D0300084D0300084D0300084D030008F0
:1000B0004D0300084D0300084D0300084D030008E0
:1000C0004D0300084D0300084D0300084D030008D0
:1000D0004D0300084D0300084D0300084D030008C0
:1000E0004D0300084D0300084D0300080000000008
:1000F0000000000000000000000000000000000000
:1001000000000000000000005FF808F100B583B0B7
:1001100000F0AAF9304B314A1360314A1360314B79
:10012000314A32498B4204D21168196004330432D7
:10013000F7E72A4B1A682E4B9A4200D0FEE7284B6D
:100140001A682C4B9A42F9D1234B2B4A13602B4A45
:1001500013602B4B02E000221A600433294A9342B9
:10016000F9D3254B1B6813B9244B1B6803B1FEE779
:1001700000F086F9694601A800F022F9224C234BD1
:10018000E41AA4100025AC4214DC214C214BE41AE3
:10019000A4100025AC4213DC0099019801F072FF15
:1001A00005461D4C1D4BE41AA410002C0EDC2846FD
:1001B00000F0E2F8154B53F8253098470135E2E797
:1001C000144B53F8253098470135E3E7013C134BB6
:1001D00053F824309847E8E7BABADECA0000002096
:1001E0009000002000000020DC2B0008940000207C
:1001F000785634123254769894000020540100202E
:1002000094000020580100207803000878030008BB
:1002100078030008780300087803000878030008D2
:1002200008B5FFF773FF00BEFEE71EF0040F0CBF1A
:10023000EFF30880EFF309807146414A10472DE93A
:10024000F04182B004468846124B5E6B9F6B9D6AFC
:100250001B6B13F0020F03D00E4BDB6A002B0CDB81
:100260000D4800F0B5F8CDF800803B4632462946EF
:10027000204600F009F900BEFEE74BF6AB6100F046
:100280007DF90028ECD0034B4FF00042DA6202B057
:10029000BDE8F08100ED00E0202B000800BEFEE785
:1002A0001EF0040F0CBFEFF30880EFF309807146D6
:1002B000244A10472DE9F04182B004468846084B95
:1002C0005E6B9F6B9D6A074800F082F8CDF8008056
:1002D0003B4632462946204600F0D6F800BEFEE7EF
:1002E00000ED00E0302B00081EF0040F0CBFEFF310
:1002F0000880EFF309807146134A10472DE9F04159
:1003000082B004468846084B5E6B9F6B9D6A074827
:1003100000F05EF8CDF800803B4632462946204684
:1003200000F0B2F800BEFEE700ED00E03C2B000854
:1003300000BEFEE700BEFEE700BEFEE7704700001D
:100340003F020008B5020008FD02000800BEFEE7FB
:10035000DC2B00080000002094000020DC2B0008AB
:100360000000000000000000940000205801002060
:08037000000000000000000085
:10037800FEE7000008B503460C4A12685AB10B4A5A
:100388001068033323F003030344094A934206D851
:10039800064A136008BD054A06491160EFE701F0F7
:1003A800F5FE0C2303604FF0FF30F3E798000020C0
:1003B800004C00205801002001230360014B0B6012
:1003C800704700BF040000200FB400B583B004AB31
:1003D80053F8042B01938021064801F011FF0028EF
:1003E80003DD0146034800F037F803B05DF804EB7D
:1003F80004B07047A00000202DE9F04385B0044602
:100408000F4643560BB10E461EE0042528462146EA
:10041800ABBE0446384605B0BDE8F08314F9011BAD
:1004280004AA1A4402F8101C0133AB42F6D304AAFA
:100438001344002203F8102C4FF00408E946404604
:100448004946ABBE8046761B002EE3D03546102EBB
:1004580028BF10250023E8E708B5FFF7CDFF08BD42
:1004680008B500F0FDF8024A024B9A6008BD00BFCB
:100478000000000800ED00E008B500F019F908BD1B
:10048800F8B504460D4617461E462748FFF79CFF59
:1004980021682648FFF798FF61682548FFF794FF11
:1004A800A1682448FFF790FFE1682348FFF78CFF15
:1004B80021692248FFF788FF61692148FFF784FF17
:1004C800A1692048FFF780FFE1691F48FFF77CFF1B
:1004D8001E48FFF779FF29461D48FFF775FF1D4C99
:1004E800E16A1D48FFF770FF216B1C48FFF76CFF9E
:1004F800E16B1B48FFF768FF15F0800F0AD115F470
:10050800004F0CD11748FFF75FFF06991648FFF711
:100518005BFFF8BD39461548FFF756FFEFE7314650
:100528001348FFF751FFEDE7042A0008142A0008D2
:10053800242A0008342A0008442A0008542A0008FB
:10054800642A0008742A0008842A0008942A0008EB
:10055800A02A000800ED00E0B02A0008C02A000820
:10056800D02A0008002B0008082B0008E02A000801
:10057800F02A000883691A888A4201D0002070474F
:100588000268033A012A03D80233836101207047C5
:100598000020704782B00023019300932C4A13680F
:1005A80043F4803313602A4B1B6803F40033009331
:1005B800019B01330193009B1BB9019BB3F5A06F0D
:1005C800F1D1234B1B6813F4003F06D0012300939D
:1005D800009B012B04D002B0704700230093F7E77B
:1005E8001C4B1A6842F010021A601A6822F00302C3
:1005F8001A601A6842F002021A60A3F580535A681A
:100608005A605A685A605A6842F480625A605A6856
:1006180022F47C125A605A6842F4E8125A601A6846
:1006280042F080721A600A4B1B6813F0007FFAD000
:10063800074B5A6822F003025A605A6842F00202D5
:100648005A60034B5B6803F00C03082BF9D1C2E72F
:10065800001002400020024008B5FFF79BFF08BDCC
:1006680008B5104B1A6842F001021A6059680E4A20
:100678000A405A601A6822F0847222F480321A60A2
:100688001A6822F480221A605A6822F4FE025A601C
:100698004FF41F029A60FFF7DFFF044B4FF0006230
:1006A8009A6008BD001002400000FFF800ED00E06D
:1006B8001F4B5B6803F00C03042B15D0082B17D0D5
:1006C8001BB11C4B1C4A1A6002E01A4B1A4A1A60EA
:1006D800174B5B68C3F30313184AD35CDAB21549A6
:1006E8000B68D3400B607047124B134A1A60EFE750
:1006F8000F4A53685268C3F38343023312F4803FAE
:100708000AD00B4A526812F4003F0BD00C4A02FB85
:1007180003F3084A1360DBE7094A02FB03F3054ABF
:100728001360D5E7044A02FB03F3024A1360CFE7DC
:10073800001002401C00002000127A000C0000206B
:1007480000093D00044B1B6813F0020F01D0012083
:1007580070470020704700BF00240140064BDA6C48
:1007680092B24FF47A7303FB02F2044B83FB021339
:100778001344DB1203807047002401408100088085
:1007880038B50546094C0023A360A36843F001036C
:10079800A360642000F058F96563A36843F002037E
:1007A800A360A36843F00103A36038BD002401409F
:1007B800014B5863704700BF00240140F0B583B077
:1007C80006460F4615460024ADF80640FFF7BAFF67
:1007D8000028FBD00DF10600FFF7C0FFBDF806307A
:1007E80025F814300134E4B2B44203D0385DFFF781
:1007F800DFFFEBE73878FFF7DBFF03B0F0BD000061
:10080800074B5A7898781044DA7810441A790244D9
:100818005879024498791044404280B2704700BF2A
:100828004801002038B50F4D7E232B70FF236B70D5
:100838000623AB700F23EB7000242C716871A9712B
:10084800FFF7DEFFC0F30F23EB712872EF236B7203
:1008580005E0044B185D00F047F90134E4B2092CB7
:10086800F7D938BD4801002010B4012824D018B1A8
:10087800022841D010BC7047072910D90F29F9D890
:10088800A1F10804E4B2A4000F23A3402A48016898
:1008980021EA030302FA04F119430160EAE7890037
:1008A8000F2303FA01F0254C236823EA000302FA18
:1008B80001F119432160DDE7072910D90F29D9D89B
:1008C800A1F10800C0B280000F2383401C4C2168AE
:1008D80021EA030302FA00F119432160CAE78900FB
:1008E8000F2303FA01F0174C236823EA000302FAE6
:1008F80001F119432160BDE7072910D90F29B9D89B
:10090800A1F10803DBB29B000F2098400E4C216830
:1009180021EA000002FA03F101432160AAE78900F5
:100928000F2303FA01F0094C236823EA000302FAB3
:1009380001F1194321609DE70408014000080140C6
:10094800040C0140000C014004100140001001405B
:10095800012817D010B1022827D07047012A0AD0E1
:10096800002A2DD11A480368012202FA01F123EA6C
:100978000103036070471648036802FA01F10B434C
:1009880003607047012A09D0D2B9124803680122CE
:1009980002FA01F123EA0103036070470D48036876
:1009A80002FA01F10B4303607047012A09D03AB9F2
:1009B80009480368012202FA01F123EA01030360EE
:1009C80070470548036802FA01F10B43036070475A
:1009D8000C0801400C0C01400C100140034B4FF473
:1009E80080321A60043301221A60704700100240F6
:1009F8001F291CD801280BD010B1022810D070472D
:100A08000B480368012202FA01F10B4303607047A7
:100A180008480368012202FA01F10B43036070479A
:100A280005480368012202FA01F10B43036070478D
:100A3800141002401C10024018100240014B002202
:100A48001A60704710E000E04FF47A7303FB00F07F
:100A5800084B1860084A136843F001031360064BFB
:100A68001B6813F4803FFAD0034A136823F001038C
:100A78001360704714E000E010E000E008B50B4B8D
:100A88001B786BB90A4B1A6822F002021A601A68BE
:100A980022F001021A600023064A13600432136030
:100AA800054B1B689847024B1B6808BD24010020B2
:100AB80010E000E014E000E020010020094B40F2C3
:100AC80041329A60DA6842F00402DA60DA6842F089
:100AD8000802DA60DA6842F40052DA6000221A602A
:100AE800704700BF00380140034B5860024B1B6839
:100AF80013F0400FFAD0704700380140094B40F21C
:100B080041329A60DA6842F00402DA60DA6842F048
:100B18000802DA60DA6842F40052DA6000221A60E9
:100B2800704700BF00440040044B1B6813F0200FBF
:100B3800FAD0024B5868C0B2704700BF004400406A
:100B48002DE9F0439BB05022002106A801F024FBB8
:100B5800AB4C2246AB49AC4B1878FFF72FFE2388E5
:100B68000A2B00F24081A64B5B880A2B41F27C825B
:100B78000025012208210020FFF7EAFE01220B21AF
:100B88000020FFF7E5FE00220C211046FFF7E0FEEB
:100B98009B4C22469B499C4B1878FFF70FFEFFF7AA
:100BA800C3FF2388092B1FD86288092A1CD8A2886A
:100BB800092A19D8E288092A16D82289092A13D8B5
:100BC8006289092A10D8A289A2F5C17292B2C62AEE
:100BD8000AD8E289B2F5FA7F06D9228AA2F28712E8
:100BE80092B2C62A41F218800A2B27D9844A528821
:100BF8000A2A23D9824A92880A2A1FD9804AD28887
:100C08000A2A1BD97E4A12890A2A17D97C4A52898C
:100C1800092A13D87A4A9289A2F5C17292B2C62AD1
:100C28000CD8774AD289B2F5FA7F07D9744A128A62
:100C3800A2F2871292B2C62A41F235800A2B27D92E
:100C48006F4A5288092A23D86D4A9288092A1FD8E0
:100C58006B4AD2880A2A1BD9694A12890A2A17D9E3
:100C6800674A5289092A13D8654A9289A2F5C1723E
:100C780092B2C62A0CD8624AD289B2F5FA7F07D94D
:100C88005F4A128AA2F2871292B2C62A41F25280B1
:100C9800092B27D85A4A5288092A23D8584A9288B1
:100CA8000A2A1FD9564AD2880A2A1BD9544A1289B5
:100CB800092A17D8524A5289092A13D8504A9289C0
:100CC800A2F5C17292B2C62A0CD84D4AD289B2F5A1
:100CD800FA7F07D94A4A128AA2F2871292B2C62A22
:100CE80041F26F80092B27D8454A52880A2A23D90E
:100CF800434A92880A2A1FD9414AD2880A2A1BD90C
:100D08003F4A12890A2A17D93D4A5289092A13D813
:100D18003B4A9289B2F5FA7F0ED2394AD289A2F2B9
:100D2800871292B2C62A07D8354A128AA2F28712C7
:100D380092B2C62A41F29280092B3FF61AAF304B85
:100D48005B88092B3FF615AF2D4B9B88092B3FF687
:100D580010AF2B4BDB88092B3FF60BAF284B1B89B9
:100D6800092B3FF606AF264B5B89092B3FF601AFEF
:100D7800234B9B89A3F5C1739BB2C62B3FF6F9AEF3
:100D88001F4BDB89B3F5FA7FBFF4F3AE1C4B1B8A0C
:100D9800A3F287139BB2C62B3FF6EBAE30287FF445
:100DA800E8AE012208210020FFF7D2FD00220B2126
:100DB8001046FFF7CDFD00220C211046FFF7C8FDB5
:100DC800002401F012B90026C6E10026C4E100267D
:100DD800C2E10026C0E10026BEE10026BCE10026F3
:100DE800BAE10026B8E10026B6E11AAB03EBC60368
:100DF800012243F8502C43F84C2C1644F6B20EE06E
:100E0800280100202000002029000020A34AA4492E
:100E1800A44B1878FFF7D2FCFFF786FE05469F4BD8
:100E28001B880A2B40F298819C4B5B880A2B40F266
:100E380093819A4B9B88092B00F28E81974BDB8814
:100E4800092B00F28981954B1B89092B00F28481BB
:100E5800924B5B89092B00F27F81904B9B89A3F50C
:100E6800C1739BB2C62B00F277818C4BDB89B3F53B
:100E7800FA7F40F27181894B1B8AA3F287139BB2D8
:100E8800C62B00F26981612DC0D065E11AAB03EB76
:100E9800C603012243F8502C022243F84C2C013699
:100EA800F6B205E07D4A7E497E4B1878FFF786FC4E
:100EB8007A4B1B88092B00F24F81784B5B88092BF2
:100EC80000F24A81754B9B88092B00F24581734BD0
:100ED800DB880A2B40F24081704B1B890A2B40F2B9
:100EE8003B816E4B5B89092B00F236816B4B9B89EA
:100EF800A3F5C1739BB2C62B00F22E81674BDB8929
:100F0800B3F5FA7F40F22881644B1B8AA3F287135A
:100F18009BB2C62BC6D91FE11AAB03EBC60301224D
:100F280043F8502C032243F84C2C0136F6B205E066
:100F38005A4A5B495B4B1878FFF740FC574B1B88B4
:100F4800092B00F20981554B5B88092B00F20481BB
:100F5800524B9B88092B00F2FF80504BDB880A2BF1
:100F680040F2FA804D4B1B890A2B40F2F5804B4B1F
:100F78005B89092B00F2F080484B9B89A3F5C1736C
:100F88009BB2C62B00F2E880444BDB89A3F287139F
:100F98009BB2C62B00F2E080404B1B8AB3F5FA7F68
:100FA800C6D3D9E04FF4FA70FFF74EFD3B4C22460A
:100FB8003B493C4B1878FFF701FC2388092B61D883
:100FC8006388092B5ED8A3880A2B5BD9E3880A2B90
:100FD80058D923890A2B55D96389092B52D8A38953
:100FE800B3F5FA7F4ED2E389A3F287139BB2C62BDF
:100FF80048D8238AA3F287139BB2C62B42D81AABD0
:1010080003EBC603012243F8502C092243F84C2C69
:101018000136F6B205E0214A2149224B1878FFF73C
:10102800CDFB1E4B1B88092B00F296801B4B5B885F
:10103800092B00F29180194B9B880A2B40F28C8077
:10104800164BDB880A2B40F28780144B1B890A2B2E
:1010580040F28280114B5B89092B7DD80F4B9B890D
:10106800B3F5FA7F78D20D4BDB89A3F287139BB2D5
:10107800C62B71D8094B1B8AA3F287139BB2C62BC8
:10108800C9D969E01AAB03EBC603012243F8502C17
:10109800042243F84C2C0136F6B20BE0280100205C
:1010A8002000002029000020264A2749274B1878CD
:1010B800FFF784FB234B1B88092B4DD8214B5B88FA
:1010C8000A2B49D91F4B9B880A2B45D91D4BDB8816
:1010D8000A2B41D91B4B1B890A2B3DD9194B5B891C
:1010E800092B39D8174B9B89B3F5FA7F34D2154BA6
:1010F800DB89A3F287139BB2C62B2DD8114B1B8A11
:10110800A3F287139BB2C62BCED925E0FFF70CFDBF
:101118006228FBD101E0FFF707FD6228FBD000241D
:10112800C4B9FFF701FD6328FAD11AAB03EBC60374
:10113800012443F8504C052243F84C2C2644F6B2BF
:10114800EEE700BF28010020200000202900002031
:10115800FFF7EAFC6328FBD0002208211046FFF7BE
:10116800F7FB01220B210020FFF7F2FB00220C21E4
:101178001046FFF7EDFBA24C2246A249A24B187875
:10118800FFF71CFBFFF7D0FC054621886288A3887F
:10119800E0882789B4F80AC0B4F80CE0B4F80E80E7
:1011A800B4F81090CDF81490CDF81080CDF80CE07C
:1011B800CDF808C0019700909448FFF705F92388F7
:1011C8000A2B21D962880A2A1ED9A288092A1BD883
:1011D800E288092A18D82289092A15D86289092A91
:1011E80012D8A289A2F5C17292B2C62A0CD8E28995
:1011F800B2F5FA7F08D9228AA2F2871292B2C62AD9
:1012080002D8612D3FF4F1AD092B27D87C4A5288CA
:10121800092A23D87A4A9288092A1FD8784AD28874
:101228000A2A1BD9764A12890A2A17D9744A528976
:10123800092A13D8724A9289A2F5C17292B2C62AB3
:101248000CD86F4AD289B2F5FA7F07D96C4A128A4C
:10125800A2F2871292B2C62A7FF618AE092B27D8B7
:10126800674A5288092A23D8654A9288092A1FD8CA
:10127800634AD2880A2A1BD9614A12890A2A17D9CD
:101288005F4A5289092A13D85D4A9289A2F5C17228
:1012980092B2C62A0CD85A4AD289A2F2871292B2BE
:1012A800C62A05D8564A128AB2F5FA7FFFF434AE38
:1012B800092B27D8524A52880A2A23D9504A928899
:1012C8000A2A1FD94E4AD2880A2A1BD94C4A12899F
:1012D8000A2A17D94A4A5289092A13D8484A9289A8
:1012E800B2F5FA7F0ED2464AD289A2F2871292B29A
:1012F800C62A07D8424A128AA2F2871292B2C62A8E
:101308007FF650AE642D3FF401AF662D00F07E816C
:10131800652D00F08D810A2B27D9394A5288092A70
:1013280023D8374A9288092A1FD8354AD288092AE9
:101338001BD8334A1289092A17D8314A5289092AEF
:1013480013D82F4A9289A2F5C17292B2C62A0CD834
:101358002B4AD289A2F2871292B2C62A05D8284A05
:10136800128AB2F5FA7F00F277810A2B27D9244A2C
:1013780052880A2A23D9224A9288092A1FD8204A41
:10138800D288092A1BD81E4A1289092A17D81C4A4A
:101398005289092A13D81A4A9289A2F5C17292B2BF
:1013A800C62A0CD8164AD289B2F5FA7F07D9144A48
:1013B800128AA2F2871292B2C62A40F206820A2B39
:1013C80032D90F4A5288092A2ED80D4A92880A2AF9
:1013D8002AD90B4AD2880A2A26D9094A12890A2AFE
:1013E80022D9074A5289092A1ED8054A9289B2F594
:1013F800FA7F19D2024AD289A2F2871292B207E082
:101408002801002020000020290000204C2B000883
:10141800C62A09D88F4A128AA2F2871292B2C62A1D
:1014280002D8672D00F01682092B29D8894A5288DC
:101438000A2A25D9874A92880A2A21D9854AD28830
:101448000A2A1DD9834A12890A2A19D9814A528936
:101458000A2A15D97F4A9289B2F5FA7F10D27D4AB5
:10146800D289A2F2871292B2C62A09D8794A128A78
:10147800A2F2871292B2C62A02D8682D00F03C82E6
:10148800092B29D8734A5288092A25D8714A928883
:10149800092A21D86F4AD288092A1DD86D4A12898B
:1014A800092A19D86B4A5289092A15D8694A928992
:1014B800A2F5C17292B2C62A0ED8664AD289A2F2A1
:1014C800871292B2C62A07D8624A128AB2F5FA7F00
:1014D80002D9692D00F05C82092B27D85D4A528811
:1014E800092A23D85B4A9288092A1FD8594AD288E0
:1014F800092A1BD8574A1289092A17D8554A5289E6
:10150800092A13D8534A9289A2F5C17292B2C62AFF
:101518000CD8504AD289B2F5FA7F07D94D4A128AB7
:10152800A2F2871292B2C62A40F27E820A2B27D9EB
:10153800484A5288092A23D8464A92880A2A1FD933
:10154800444AD2880A2A1BD9424A12890A2A17D938
:10155800404A52890A2A13D93E4A9289B2F5FA7F3B
:101568000ED23C4AD289A2F2871292B2C62A07D872
:10157800384A128AA2F2871292B2C62A40F29A8296
:10158800092B3FF6E9AD334B5B88092B3FF6E4ADF9
:10159800304B9B88092B3FF6DFAD2E4BDB88092BA0
:1015A8003FF6DAAD2B4B1B89092B3FF6D5AD294BFE
:1015B8005B89092B3FF6D0AD264B9B89A3F5C173F8
:1015C8009BB2C62B3FF6C8AD224BDB89B3F5FA7F39
:1015D800BFF4C2AD1F4B1B8AA3F287139BB2C62B65
:1015E8003FF6BAAD302D7FF4B7AD012208210020B7
:1015F800FFF7AEF900220B211046FFF7A9F90022E8
:101608000C211046FFF7A4F90024A8E21AAB03EB5B
:10161800C603012243F8502C062243F84C2C01360D
:10162800F6B202E0FFF780FA0546662DFAD093E598
:101638001AAB03EBC603012243F8502C072243F8E8
:101648004C2C0136F6B202E0FFF76EFA0546652D1E
:10165800FAD081E5280100204FF4FA70FFF7F4F979
:10166800A24C2246A249A34B1878FFF7A7F8238873
:101678000A2B64D963880A2B61D9A3880A2B5ED9FF
:10168800E3880A2B5BD923890A2B58D96389092B4C
:1016980055D8A389B3F5FA7F51D2E389A3F287130A
:1016A8009BB2C62B4BD8238AA3F287139BB2C62BB7
:1016B80045D81AAB03EBC603022243F8502C01228B
:1016C80043F84C2C1644F6B2884B1B880A2B7FF63D
:1016D80043AD864B5B880A2B7FF63EAD834B9B88D8
:1016E8000A2B7FF639AD814BDB880A2B7FF634ADA8
:1016F8007E4B1B890A2B7FF62FAD7C4B5B89092B10
:101708003FF62AAD794B9B89B3F5FA7FBFF424AD38
:10171800764BDB89A3F287139BB2C62B3FF61CAD31
:10172800724B1B8AA3F287139BB2C62B3FF614ADEC
:101738006E4A6F496F4B1878FFF740F8C4E71AAB49
:1017480003EBC603012243F8502C082243F84C2C23
:101758000136F6B2654B1B880A2B7FF6FDAC634B4E
:101768005B88092B3FF6F8AC604B9B88092B3FF64A
:10177800F3AC5E4BDB88092B3FF6EEAC5B4B1B8969
:10178800092B3FF6E9AC594B5B89092B3FF6E4ACD2
:10179800564B9B89A3F5C1739BB2C62B3FF6DCACB5
:1017A800524BDB89A3F287139BB2C62B3FF6D4AC0E
:1017B8004E4B1B8AB3F5FA7F7FF6CEAC4B4A4C49A9
:1017C8004C4B1878FEF7FAFFC4E71AAB03EBC603D5
:1017D800022243F8502C43F84C2C0136F6B2434B06
:1017E8001B880A2B7FF6B8AC404B5B880A2B7FF628
:1017F800B3AC3E4B9B88092B3FF6AEAC3B4BDB882A
:10180800092B3FF6A9AC394B1B89092B3FF6A4AC31
:10181800364B5B89092B3FF69FAC344B9B89A3F56C
:10182800C1739BB2C62B3FF697AC304BDB89B3F53F
:10183800FA7F7FF691AC2D4B1B8AA3F287139BB2DC
:10184800C62B3FF689AC294A29492A4B1878FEF756
:10185800B5FFC4E71AAB03EBC603022243F8502CCA
:10186800032243F84C2C0136F6B2204B1B880A2B76
:101878007FF672AC1D4B5B88092B3FF66DAC1B4B9A
:101888009B880A2B7FF668AC184BDB880A2B7FF6FF
:1018980063AC164B1B890A2B7FF65EAC134B5B8936
:1018A800092B3FF659AC114B9B89B3F5FA7FBFF46E
:1018B80053AC0E4BDB89A3F287139BB2C62B3FF6C2
:1018C8004BAC0A4B1B8AA3F287139BB2C62B3FF67D
:1018D80043AC672D7FF440AC044A0549054B1878A2
:1018E800FEF76CFFFFF720F90546BEE72801002048
:1018F80020000020290000201AAB03EBC6030222B7
:1019080043F8502C042243F84C2C0136F6B2B94B5C
:101918001B88092B3FF620ACB64B5B880A2B7FF659
:101928001BACB44B9B880A2B7FF616ACB14BDB88FB
:101938000A2B7FF611ACAF4B1B890A2B7FF60CAC38
:10194800AC4B5B890A2B7FF607ACAA4B9B89B3F596
:10195800FA7FBFF401ACA74BDB89A3F287139BB2D4
:10196800C62B3FF6F9ABA34B1B8AA3F287139BB296
:10197800C62B3FF6F1AB682D7FF4EEAB9D4A9E492E
:101988009E4B1878FEF71AFFFFF7CEF80546BEE71C
:101998001AAB03EBC603022243F8502C052243F886
:1019A8004C2C0136F6B2934B1B88092B3FF6D4AB6F
:1019B800904B5B88092B3FF6CFAB8E4B9B88092B4E
:1019C8003FF6CAAB8B4BDB88092B3FF6C5AB894B7F
:1019D8001B89092B3FF6C0AB864B5B89092B3FF669
:1019E800BBAB844B9B89A3F5C1739BB2C62B3FF657
:1019F800B3AB804BDB89A3F287139BB2C62B3FF6B0
:101A0800ABAB7C4B1B8AB3F5FA7F7FF6A5AB692D90
:101A18007FF4A2AB774A7849784B1878FEF7CEFE68
:101A2800FFF782F80546BEE71AAB03EBC6030222AE
:101A380043F8502C062243F84C2C0136F6B26D4B75
:101A48001B88092B3FF688AB6A4B5B88092B3FF64E
:101A580083AB684B9B88092B3FF67EAB654BDB88D5
:101A6800092B3FF679AB634B1B89092B3FF674AB07
:101A7800604B5B89092B3FF66FAB5E4B9B89A3F5E7
:101A8800C1739BB2C62B3FF667AB5A4BDB89B3F5E4
:101A9800FA7F7FF661AB574B1B8AA3F287139BB281
:101AA800C62B3FF659AB534A5349544B1878FEF7A7
:101AB80085FEC4E71AAB03EBC603022243F8502C99
:101AC800072243F84C2C0136F6B24A4B1B880A2BE6
:101AD8007FF642AB474B5B88092B3FF63DAB454B46
:101AE8009B880A2B7FF638AB424BDB880A2B7FF6A4
:101AF80033AB404B1B890A2B7FF62EAB3D4B5B89E2
:101B08000A2B7FF629AB3B4B9B89B3F5FA7FBFF4D1
:101B180023AB384BDB89A3F287139BB2C62B3FF666
:101B28001BAB344B1B8AA3F287139BB2C62B3FF621
:101B380013AB304A3049314B1878FEF73FFEC4E703
:101B48001AAB03EBC40313F84C1C13F8500CFEF744
:101B580069FE4FF47A70FEF777FF0134E4B2A642CB
:101B6800EED805E0234A2449244B1878FEF726FED0
:101B7800204B1B88092B3FF626A91E4B5B88092B97
:101B88003FF623A91B4B9B88092B3FF620A9194B2D
:101B9800DB88092B3FF61DA9164B1B89092B3FF63D
:101BA8001AA9144B5B89092B3FF617A9114B9B897E
:101BB800A3F5C1739BB2C62B3FF611A90D4BDB8968
:101BC800B3F5FA7FBFF40DA90A4B1B8AA3F287135A
:101BD8009BB2C62BC6D90026FFF7BEBA0025FEF772
:101BE800C8BF0025FEF7C5BF0025FEF7C2BF002508
:101BF800FEF7BFBF28010020200000202900002098
:101C08000025FEF7B6BF0025FEF7B3BF0025FEF797
:101C1800B0BF0025FEF7ADBF1AAB03EBC503022228
:101C280043F8502C082243F84C2C0135EDB205E05E
:101C3800874A8849884B1878FEF7C0FD844B1B8873
:101C4800092B3EF696AF824B5B88092B3EF691AF87
:101C58007F4B9B88092B3EF68CAF7D4BDB88092B8D
:101C68003EF687AF7A4B1B89092B3EF682AF784B3D
:101C78005B89092B3EF67DAF754B9B89A3F5C17334
:101C88009BB2C62B3EF675AF714BDB89B3F5FA7F75
:101C98007EF66FAF6E4B1B8AA3F287139BB2C62BDF
:101CA800C6D9FEF766BF1AAB03EBC503022243F899
:101CB800502C092243F84C2C0135EDB205E0644A5A
:101CC8006449654B1878FEF779FD614B1B880A2B30
:101CD8007EF64FAF5E4B5B880A2B7EF64AAF5C4BB5
:101CE8009B880A2B7EF645AF594BDB880A2B7EF67C
:101CF80040AF574B1B890A2B7EF63BAF544B5B8991
:101D0800092B3EF636AF524B9B89A3F5C1739BB2A4
:101D1800C62B3EF62EAF4E4BDB89B3F5FA7F7EF627
:101D280028AF4B4B1B8AA3F287139BB2C62BC6D98D
:101D3800FEF71FBF1AAB03EBC503032243F8502C71
:101D4800012243F84C2C1544EDB205E0404A4149C4
:101D5800414B1878FEF732FD3D4B1B880A2B7EF667
:101D680008AF3B4B5B88092B3EF603AF384B9B888B
:101D7800092B3EF6FEAE364BDB880A2B7EF6F9AE13
:101D8800334B1B890A2B7EF6F4AE314B5B89092B4A
:101D98003EF6EFAE2E4B9B89A3F5C1739BB2C62BC3
:101DA8003EF6E7AE2A4BDB89B3F5FA7F7EF6E1AE65
:101DB800274B1B8AA3F287139BB2C62BC6D9FEF703
:101DC800D8BE1AAB03EBC503032243F8502C0222FA
:101DD80043F84C2C0135EDB205E01D4A1D491E4B58
:101DE8001878FEF7EBFC1A4B1B88092B3EF6C1AEA0
:101DF800174B5B88092B3EF6BCAE154B9B880A2B0C
:101E08007EF6B7AE124BDB880A2B7EF6B2AE104BCD
:101E18001B89092B3EF6ADAE0D4B5B89092B3EF6AF
:101E2800A8AE0B4B9B89A3F5C1739BB2C62B3EF69C
:101E3800A0AE074BDB89B3F5FA7F7EF69AAE044B6A
:101E48001B8AA3F287139BB2C62BC6D9FEF791BE95
:101E58002801002020000020290000204FF4FA70FB
:101E6800FEF7F2FD824C22468249834B1878FEF732
:101E7800A5FC2388092B63D86388092B60D8A3881D
:101E88000A2B5DD9E3880A2B5AD923890A2B57D9FB
:101E98006389092B54D8A389B3F5FA7F50D2E38913
:101EA800A3F287139BB2C62B4AD8238AA3F28713BF
:101EB8009BB2C62B44D81AAB03EBC503032243F8E5
:101EC800502C43F84C2C0135EDB2694B1B88092B7B
:101ED8003EF64FAE664B5B88092B3EF64AAE644B26
:101EE8009B880A2B7EF645AE614BDB880A2B7EF673
:101EF80040AE5F4B1B890A2B7EF63BAE5C4B5B8981
:101F0800092B3EF636AE5A4B9B89B3F5FA7FBEF4E1
:101F180030AE574BDB89A3F287139BB2C62B3EF634
:101F280028AE534B1B8AA3F287139BB2C62B3EF6EF
:101F380020AE4F4A4F49504B1878FEF73FFCC4E794
:101F48001AAB03EBC503032243F8502C042243F8D1
:101F58004C2C0135EDB2464B1B88092B3EF609AED9
:101F6800434B5B880A2B7EF604AE414B9B880A2BB9
:101F78007EF6FFAD3E4BDB880A2B7EF6FAAD3C4B76
:101F88001B890A2B7EF6F5AD394B5B89092B3EF68A
:101F9800F0AD374B9B89B3F5FA7FBEF4EAAD344B0D
:101FA800DB89A3F287139BB2C62B3EF6E2AD304B1A
:101FB8001B8AA3F287139BB2C62B3EF6DAAD2C4AD6
:101FC8002C492D4B1878FEF7F9FBC4E71AAB03EB45
:101FD800C40313F84C1C13F8500CFEF723FC4FF401
:101FE8007A70FEF731FD0134E4B2A542EED805E07F
:101FF8001F4A2049204B1878FEF7E0FB1C4B1B8832
:10200800092B3FF6EBAD1A4B5B88092B3FF6E9AD80
:10201800174B9B88092B3FF6E7AD154BDB88092B3F
:102028003FF6E5AD124B1B89092B3FF6E9AD104B86
:102038005B89092B3FF6E7AD0D4B9B89A3F5C1736F
:102048009BB2C62B3FF6E2AD094BDB89B3F5FA7FAD
:10205800BFF4DFAD064B1B8AA3F287139BB2C62BD6
:10206800C6D90025FEF785BD1BB0BDE8F08300BFCB
:1020780028010020200000202900002008B5FEF7D4
:10208800ADFC02210846FEF7B3FC03210220FEF74F
:10209800AFFC0E210220FEF7ABFC11210120FEF758
:1020A800A7FC09210220FEF7A3FCFEF7C7FC0422C7
:1020B80003210020FEF7D8FBFEF720FD0B220921A3
:1020C8000020FEF7D1FB04220A210020FEF7CCFBFA
:1020D800FEF7F4FC042203210020FEF7C5FBFEF7FF
:1020E8000DFD294B1878FEF74BFB002211461046D0
:1020F800FEF7BAFB002201211046FEF7B5FB0022CD
:1021080002211046FEF7B0FB002204211046FEF71C
:10211800ABFB002205211046FEF7A6FB0022062194
:102128001046FEF7A1FB002207211046FEF79CFB94
:10213800002211460120FEF797FB002201210846E4
:10214800FEF792FB032208210020FEF78DFB0322F5
:102158000B210020FEF788FB03220C210020FEF74C
:1021680083FB002208211046FEF7F2FB01220B2117
:102178000020FEF7EDFB01220C210020FEF7E8FB12
:10218800FEF7DEFCFCE700BF20000020014B1868CA
:10219800704700BF2C00002003460244934200D140
:1021A800704703F8011BF9E730B5141E05469BB0CC
:1021B800184605DA8B234FF0FF302B601BB030BD7B
:1021C8004FF40273ADF80C300CBF234604F1FF3313
:1021D800029305934FF6FF7300910491ADF80E300A
:1021E80002461E9B6946284600F072F8431CBCBF95
:1021F8008B232B60002CE1D00022009B1A70DDE7B6
:1022080007B5009313460A46014603480068FFF7DE
:10221800CBFF03B05DF804FB2C0000202DE9F0474C
:102228008E6882469E420C469046994637D88A89DF
:1022380012F4906F31D00223256809696F1A656915
:1022480005EB450595FBF3F509F101033B449D4278
:1022580038BF1D46530530D5294600F035FB0646E4
:1022680050B90C234FF0FF30CAF80030A38943F06F
:102278004003A381BDE8F0873A46216900F0B4FA2B
:10228800A38923F4906343F08003A38126613E442D
:1022980026604E466561ED1BA5604E4500D94E4649
:1022A80032464146206800F0AAFAA36800209B1B2A
:1022B800A36023681E442660DCE72A4600F05EFB24
:1022C80006460028E2D12169504600F0B1FAC8E775
:1022D8002DE9F04F9DB003938B8980461D060C466F
:1022E80016460FD50B696BB9402100F0EDFA206056
:1022F800206128B90C23C8F800304FF0FF30C7E040
:10230800402363610023099320238DF8293030236B
:102318004FF0010B8DF82A3037463D4615F8013B42
:102328000BB1252B3ED1B7EB060A0BD053463246EC
:1023380021464046FFF772FF013000F0A480099B58
:10234800534409933B78002B00F09D8000234FF005
:10235800FF32CDE90523049307938DF853301A9380
:102368002F46052217F8011B4F4800F02FFA049B4F
:10237800D0B9D90644BF20228DF853201A0744BF8C
:102388002B228DF853202A782A2A15D02F46002090
:102398000A25079A394611F8013B303B092B4DD9DC
:1023A800B8B10FE02F46B8E73F4A3D46801A0BFA0E
:1023B80000F018430490D3E7039A111D12680391A3
:1023C800002A01DB079204E0524243F0020307921D
:1023D80004933B782E2B0CD17B782A2B33D1039B8B
:1023E80002371A1D1B680392002BB8BF4FF0FF334A
:1023F80005932E4D03223978284600F0E7F938B1C5
:102408004023401B03FA00F0049B01370343049365
:102418003978062226487E1C8DF8281000F0D6F957
:10242800002838D0234B13BB039B073323F0070343
:1024380008330393099B4B4409936DE705FB02326C
:1024480001200F46A6E700230A2519460137059300
:10245800384610F8012B303A092A03D9002BC8D086
:102468000591C6E705FB012101230746F0E703AB09
:1024780000932246104B04A94046AFF30080B0F108
:10248800FF3F8146D6D1A3895B063FF536AF099851
:102498001DB0BDE8F08F03AB00932246064B04A99C
:1024A800404600F081F8EAE7A82B0008AE2B0008A8
:1024B800B22B000800000000252200082DE9F04793
:1024C80091461F468A680B6906469342B8BF134671
:1024D800C9F8003091F843200C46DDF8208012B18D
:1024E8000133C9F800302368990642BFD9F8003093
:1024F8000233C9F80030256815F0060507D104F144
:10250800190AE368D9F800209B1AAB4229DC94F831
:1025180043302268003318BF012392062ED404F1F9
:10252800430239463046C047013021D02368E56868
:1025380003F00603042B18BF0025D9F800204FF03C
:10254800000908BFAD1AA368226908BF25EAE57526
:102558009342C4BF9B1AED181A344D451AD1002076
:1025680008E00123524639463046C047013003D1BE
:102578004FF0FF30BDE8F0870135C2E73020E118A1
:1025880081F843005A1C94F845102244023382F81B
:102598004310C4E70123224639463046C04701307C
:1025A800E6D009F10109D8E72DE9F04301F1430C20
:1025B8000C46097E85B06E291746064698460C9A41
:1025C80000F0B38022D8632936D00AD8002900F059
:1025D800B980582900F0838004F1420584F842103C
:1025E80032E0642901D06929F6D12068136805060C
:1025F80003F104012AD51B681160002B03DA2D2290
:102608005B4284F843206F480A2239E0732900F0BE
:102618009D8008D86F2920D07029DDD1236843F028
:102628002003236003E0752917D07829D4D17823B3
:10263800654884F8453055E0136804F14205191DD2
:102648001B68116084F8423001238CE01B6810F08D
:10265800400F116018BF1BB2CFE713682568181D1B
:102668001060280601D51B6802E06806FBD51B88A8
:102678006F2914BF0A2208225248002184F8431007
:102688006568002DA560C0F29580216821F00401DD
:102698002160002B3DD1002D40F08E806546082A30
:1026A8000BD12368DB0708D5236962689A42DEBF2D
:1026B800302305F8013C05F1FF35ACEB0503236138
:1026C800CDF800803B4603AA21463046FFF7F6FEC8
:1026D80001304DD14FF0FF3005B0BDE8F0833948E7
:1026E80084F84510136821681D1D1B6815600A06CB
:1026F8000BD5CA0744BF41F0200121601BB92268ED
:1027080022F0200222601022B7E74D0648BF9BB294
:10271800EFE76546B3FBF2F102FB1133C35C05F842
:10272800013D0B460029F5D1B9E713682568181D46
:102738006169106028061B6801D5196002E06A0605
:10274800FBD51980002365462361B9E71368191D75
:1027580011601D6862680021284600F037F808B14A
:10276800401B606063682361002384F84330A7E757
:1027780023692A4639463046C0470130AAD0236823
:102788009B0713D4E068039B9842B8BF1846A3E799
:1027980001234A4639463046C04701309AD00135B0
:1027A800E368039A9B1AAB42F2DCEBE7002504F1DD
:1027B8001909F5E7002BACD1037804F1420584F838
:1027C80042306CE7B92B0008CA2B000810B5C9B213
:1027D80002449042034601D1002303E01C780130F3
:1027E8008C42F6D1184610BD10B5431E0A449142DA
:1027F80000D110BD11F8014B03F8014FF7E78842EB
:1028080010B501EB020307D8421E99420AD011F80D
:10281800014B02F8014FF8E78342F5D98118D21A23
:10282800D34200D110BD13F8014D01F8014DF7E76F
:1028380038B50546002943D051F8043C0C1F002B3D
:10284800B8BFE41800F0D0F81E4A1368104633B930
:10285800636014602846BDE8384000F0C6B8A3425B
:102868000BD921686218934201BF1A685B68521835
:10287800226063600460EDE713465A680AB1A24219
:10288800FAD919685818A0420BD120680144581881
:1028980082421960DED110685268014419605A609A
:1028A800D8E702D90C232B60D4E7206821188A4284
:1028B80001BF116852680918216062605C60C9E74D
:1028C80038BD00BF3C01002070B5CD1C25F00305C4
:1028D80008350C2D38BF0C25002D064601DBA94212
:1028E80003D90C233360002070BD00F07DF8214A25
:1028F8001468214691B9204C23681BB9304600F072
:1029080063F820602946304600F05EF8431C24D165
:102918000C233046336000F068F8E4E70B685B1B73
:1029280018D40B2B0FD90B60CC18CD50304600F0C3
:102938005CF804F10B00231D20F00700C31AD3D064
:102948005A42E250D0E74B688C4216BF636013606E
:102958000C46EBE70C464968CCE7C41C24F003049A
:10296800A04205D0211A304600F02EF80130CFD011
:102978002560DBE73C01002040010020F8B5074650
:1029880014460E4621B9BDE8F8401146FFF79CBF32
:1029980022B9FFF74DFF25462846F8BD00F026F876
:1029A800A0420FD221463846FFF78EFF0546002881
:1029B800F2D031462246FFF717FF31463846FFF777
:1029C80037FFE9E73546E7E738B50023054C054604
:1029D80008462360FDF7CEFC431C02D1236803B1EF
:1029E8002B6038BD440100207047704751F8043C03
:1029F800181F002BBCBF0B58C01870475374616375
:102A08006B206672616D653A0A0000002052302022
:102A18003D2020253038580A00000000205231207F
:102A28003D2020253038580A00000000205232206E
:102A38003D2020253038580A00000000205233205D
:102A48003D2020253038580A00000000205231323D
:102A5800203D20253038580A00000000204C522024
:102A68003D2020253038580A00000000205043201F
:102A78003D2020253038580A0000000020505352CD
:102A8800203D20253038580A000000004653522FB8
:102A98004641523A0A0000002043465352203D2046
:102AA80020253038580A00002048465352203D203F
:102AB80020253038580A00002044465352203D2033
:102AC80020253038580A00002041465352203D2026
:102AD80020253038580A0000204D4D464152203DEF
:102AE80020253038580A00002042464152203D2017
:102AF80020253038580A00004D6973630A00000029
:102B0800204C522F4558435F52455455524E3D2054
:102B1800253038580A0000005B48617264466175C8
:102B28006C745D0A000000005B4275734661756C49
:102B3800745D0A005B55736167654661756C745D09
:102B48000A000000706F7431203D2025642C20702D
:102B58006F7432203D2025642C20706F7433203D23
:102B68002025642C20706F7434203D2025642C208F
:102B7800706F7435203D2025642C20706F743620CA
:102B88003D2025642C2078203D2025642C207920A8
:102B98003D2025642C207A203D2025640A00000071
:102BA800232D302B2000686C4C006566674546472E
:102BB80000303132333435363738394142434445B1
:102BC8004600303132333435363738396162636420
:032BD8006566002F
:102BDC00785634129C000020000000000000000019
:102BEC0000000000010203040607080900A24A04C1
:102BFC0000010204050607080909FFFF3000002048
:102C0C0000000000000000000000000000000000B8
:102C1C0000000000000000000000000000000000A8
:102C2C000000000000000000000000000000000098
:102C3C000000000000000000000000000000000088
:102C4C000000000000000000000000000000000078
:102C5C000000000000000000000000000000000068
:042C6C0032547698D0
:040000050800010DE1
:00000001FF
